{
  "contractName": "HyperCartridge",
  "abi": [
    {
      "inputs": [],
      "stateMutability": "nonpayable",
      "type": "constructor"
    },
    {
      "anonymous": false,
      "inputs": [
        {
          "indexed": true,
          "internalType": "address",
          "name": "owner",
          "type": "address"
        },
        {
          "indexed": true,
          "internalType": "address",
          "name": "approved",
          "type": "address"
        },
        {
          "indexed": true,
          "internalType": "uint256",
          "name": "tokenId",
          "type": "uint256"
        }
      ],
      "name": "Approval",
      "type": "event"
    },
    {
      "anonymous": false,
      "inputs": [
        {
          "indexed": true,
          "internalType": "address",
          "name": "owner",
          "type": "address"
        },
        {
          "indexed": true,
          "internalType": "address",
          "name": "operator",
          "type": "address"
        },
        {
          "indexed": false,
          "internalType": "bool",
          "name": "approved",
          "type": "bool"
        }
      ],
      "name": "ApprovalForAll",
      "type": "event"
    },
    {
      "anonymous": false,
      "inputs": [
        {
          "indexed": true,
          "internalType": "address",
          "name": "previousOwner",
          "type": "address"
        },
        {
          "indexed": true,
          "internalType": "address",
          "name": "newOwner",
          "type": "address"
        }
      ],
      "name": "OwnershipTransferred",
      "type": "event"
    },
    {
      "anonymous": false,
      "inputs": [
        {
          "indexed": true,
          "internalType": "uint256",
          "name": "tokenId",
          "type": "uint256"
        }
      ],
      "name": "StateChanged",
      "type": "event"
    },
    {
      "anonymous": false,
      "inputs": [
        {
          "indexed": true,
          "internalType": "address",
          "name": "from",
          "type": "address"
        },
        {
          "indexed": true,
          "internalType": "address",
          "name": "to",
          "type": "address"
        },
        {
          "indexed": true,
          "internalType": "uint256",
          "name": "tokenId",
          "type": "uint256"
        }
      ],
      "name": "Transfer",
      "type": "event"
    },
    {
      "inputs": [
        {
          "internalType": "address",
          "name": "to",
          "type": "address"
        },
        {
          "internalType": "uint256",
          "name": "tokenId",
          "type": "uint256"
        }
      ],
      "name": "approve",
      "outputs": [],
      "stateMutability": "nonpayable",
      "type": "function"
    },
    {
      "inputs": [
        {
          "internalType": "address",
          "name": "owner",
          "type": "address"
        }
      ],
      "name": "balanceOf",
      "outputs": [
        {
          "internalType": "uint256",
          "name": "",
          "type": "uint256"
        }
      ],
      "stateMutability": "view",
      "type": "function"
    },
    {
      "inputs": [
        {
          "internalType": "uint256",
          "name": "tokenId",
          "type": "uint256"
        }
      ],
      "name": "burn",
      "outputs": [],
      "stateMutability": "nonpayable",
      "type": "function"
    },
    {
      "inputs": [
        {
          "internalType": "uint256",
          "name": "tokenId",
          "type": "uint256"
        }
      ],
      "name": "getApproved",
      "outputs": [
        {
          "internalType": "address",
          "name": "",
          "type": "address"
        }
      ],
      "stateMutability": "view",
      "type": "function"
    },
    {
      "inputs": [
        {
          "internalType": "address",
          "name": "owner",
          "type": "address"
        },
        {
          "internalType": "address",
          "name": "operator",
          "type": "address"
        }
      ],
      "name": "isApprovedForAll",
      "outputs": [
        {
          "internalType": "bool",
          "name": "",
          "type": "bool"
        }
      ],
      "stateMutability": "view",
      "type": "function"
    },
    {
      "inputs": [],
      "name": "name",
      "outputs": [
        {
          "internalType": "string",
          "name": "",
          "type": "string"
        }
      ],
      "stateMutability": "view",
      "type": "function"
    },
    {
      "inputs": [],
      "name": "owner",
      "outputs": [
        {
          "internalType": "address",
          "name": "",
          "type": "address"
        }
      ],
      "stateMutability": "view",
      "type": "function"
    },
    {
      "inputs": [
        {
          "internalType": "uint256",
          "name": "tokenId",
          "type": "uint256"
        }
      ],
      "name": "ownerOf",
      "outputs": [
        {
          "internalType": "address",
          "name": "",
          "type": "address"
        }
      ],
      "stateMutability": "view",
      "type": "function"
    },
    {
      "inputs": [],
      "name": "renounceOwnership",
      "outputs": [],
      "stateMutability": "nonpayable",
      "type": "function"
    },
    {
      "inputs": [
        {
          "internalType": "address",
          "name": "from",
          "type": "address"
        },
        {
          "internalType": "address",
          "name": "to",
          "type": "address"
        },
        {
          "internalType": "uint256",
          "name": "tokenId",
          "type": "uint256"
        }
      ],
      "name": "safeTransferFrom",
      "outputs": [],
      "stateMutability": "nonpayable",
      "type": "function"
    },
    {
      "inputs": [
        {
          "internalType": "address",
          "name": "from",
          "type": "address"
        },
        {
          "internalType": "address",
          "name": "to",
          "type": "address"
        },
        {
          "internalType": "uint256",
          "name": "tokenId",
          "type": "uint256"
        },
        {
          "internalType": "bytes",
          "name": "data",
          "type": "bytes"
        }
      ],
      "name": "safeTransferFrom",
      "outputs": [],
      "stateMutability": "nonpayable",
      "type": "function"
    },
    {
      "inputs": [
        {
          "internalType": "address",
          "name": "operator",
          "type": "address"
        },
        {
          "internalType": "bool",
          "name": "approved",
          "type": "bool"
        }
      ],
      "name": "setApprovalForAll",
      "outputs": [],
      "stateMutability": "nonpayable",
      "type": "function"
    },
    {
      "inputs": [],
      "name": "symbol",
      "outputs": [
        {
          "internalType": "string",
          "name": "",
          "type": "string"
        }
      ],
      "stateMutability": "view",
      "type": "function"
    },
    {
      "inputs": [
        {
          "internalType": "uint256",
          "name": "index",
          "type": "uint256"
        }
      ],
      "name": "tokenByIndex",
      "outputs": [
        {
          "internalType": "uint256",
          "name": "",
          "type": "uint256"
        }
      ],
      "stateMutability": "view",
      "type": "function"
    },
    {
      "inputs": [
        {
          "internalType": "address",
          "name": "owner",
          "type": "address"
        },
        {
          "internalType": "uint256",
          "name": "index",
          "type": "uint256"
        }
      ],
      "name": "tokenOfOwnerByIndex",
      "outputs": [
        {
          "internalType": "uint256",
          "name": "",
          "type": "uint256"
        }
      ],
      "stateMutability": "view",
      "type": "function"
    },
    {
      "inputs": [
        {
          "internalType": "uint256",
          "name": "tokenId",
          "type": "uint256"
        }
      ],
      "name": "tokenURI",
      "outputs": [
        {
          "internalType": "string",
          "name": "",
          "type": "string"
        }
      ],
      "stateMutability": "view",
      "type": "function"
    },
    {
      "inputs": [],
      "name": "totalSupply",
      "outputs": [
        {
          "internalType": "uint256",
          "name": "",
          "type": "uint256"
        }
      ],
      "stateMutability": "view",
      "type": "function"
    },
    {
      "inputs": [
        {
          "internalType": "address",
          "name": "from",
          "type": "address"
        },
        {
          "internalType": "address",
          "name": "to",
          "type": "address"
        },
        {
          "internalType": "uint256",
          "name": "tokenId",
          "type": "uint256"
        }
      ],
      "name": "transferFrom",
      "outputs": [],
      "stateMutability": "nonpayable",
      "type": "function"
    },
    {
      "inputs": [
        {
          "internalType": "address",
          "name": "newOwner",
          "type": "address"
        }
      ],
      "name": "transferOwnership",
      "outputs": [],
      "stateMutability": "nonpayable",
      "type": "function"
    },
    {
      "inputs": [
        {
          "internalType": "address",
          "name": "to",
          "type": "address"
        }
      ],
      "name": "safeMint",
      "outputs": [],
      "stateMutability": "nonpayable",
      "type": "function"
    },
    {
      "inputs": [
        {
          "internalType": "bytes4",
          "name": "interfaceId",
          "type": "bytes4"
        }
      ],
      "name": "supportsInterface",
      "outputs": [
        {
          "internalType": "bool",
          "name": "",
          "type": "bool"
        }
      ],
      "stateMutability": "view",
      "type": "function"
    }
  ],
  "bytecode": "0x60806040523480156200001157600080fd5b506040518060400160405280600e81526020017f48797065724361727472696467650000000000000000000000000000000000008152506040518060400160405280600581526020017f4843617274000000000000000000000000000000000000000000000000000000815250816000908051906020019062000096929190620001a6565b508060019080519060200190620000af929190620001a6565b505050620000d2620000c6620000d860201b60201c565b620000e060201b60201c565b620002ba565b600033905090565b6000600a60009054906101000a900473ffffffffffffffffffffffffffffffffffffffff16905081600a60006101000a81548173ffffffffffffffffffffffffffffffffffffffff021916908373ffffffffffffffffffffffffffffffffffffffff1602179055508173ffffffffffffffffffffffffffffffffffffffff168173ffffffffffffffffffffffffffffffffffffffff167f8be0079c531659141344cd1fd0a4f28419497f9722a3daafe3b4186f6b6457e060405160405180910390a35050565b828054620001b49062000285565b90600052602060002090601f016020900481019282620001d8576000855562000224565b82601f10620001f357805160ff191683800117855562000224565b8280016001018555821562000224579182015b828111156200022357825182559160200191906001019062000206565b5b50905062000233919062000237565b5090565b5b808211156200025257600081600090555060010162000238565b5090565b7f4e487b7100000000000000000000000000000000000000000000000000000000600052602260045260246000fd5b600060028204905060018216806200029e57607f821691505b602082108103620002b457620002b362000256565b5b50919050565b61339480620002ca6000396000f3fe608060405234801561001057600080fd5b50600436106101375760003560e01c80634f6ccce7116100b857806395d89b411161007c57806395d89b411461034c578063a22cb4651461036a578063b88d4fde14610386578063c87b56dd146103a2578063e985e9c5146103d2578063f2fde38b1461040257610137565b80634f6ccce7146102945780636352211e146102c457806370a08231146102f4578063715018a6146103245780638da5cb5b1461032e57610137565b806323b872dd116100ff57806323b872dd146101f45780632f745c591461021057806340d097c31461024057806342842e0e1461025c57806342966c681461027857610137565b806301ffc9a71461013c57806306fdde031461016c578063081812fc1461018a578063095ea7b3146101ba57806318160ddd146101d6575b600080fd5b61015660048036038101906101519190612312565b61041e565b604051610163919061235a565b60405180910390f35b610174610430565b604051610181919061240e565b60405180910390f35b6101a4600480360381019061019f9190612466565b6104c2565b6040516101b191906124d4565b60405180910390f35b6101d460048036038101906101cf919061251b565b610508565b005b6101de61061f565b6040516101eb919061256a565b60405180910390f35b61020e60048036038101906102099190612585565b61062c565b005b61022a6004803603810190610225919061251b565b61068c565b604051610237919061256a565b60405180910390f35b61025a600480360381019061025591906125d8565b610731565b005b61027660048036038101906102719190612585565b61075f565b005b610292600480360381019061028d9190612466565b61077f565b005b6102ae60048036038101906102a99190612466565b6107db565b6040516102bb919061256a565b60405180910390f35b6102de60048036038101906102d99190612466565b61084c565b6040516102eb91906124d4565b60405180910390f35b61030e600480360381019061030991906125d8565b6108d2565b60405161031b919061256a565b60405180910390f35b61032c610989565b005b61033661099d565b60405161034391906124d4565b60405180910390f35b6103546109c7565b604051610361919061240e565b60405180910390f35b610384600480360381019061037f9190612631565b610a59565b005b6103a0600480360381019061039b91906127a6565b610a6f565b005b6103bc60048036038101906103b79190612466565b610ad1565b6040516103c9919061240e565b60405180910390f35b6103ec60048036038101906103e79190612829565b610b39565b6040516103f9919061235a565b60405180910390f35b61041c600480360381019061041791906125d8565b610bcd565b005b600061042982610c50565b9050919050565b60606000805461043f90612898565b80601f016020809104026020016040519081016040528092919081815260200182805461046b90612898565b80156104b85780601f1061048d576101008083540402835291602001916104b8565b820191906000526020600020905b81548152906001019060200180831161049b57829003601f168201915b5050505050905090565b60006104cd82610cca565b6004600083815260200190815260200160002060009054906101000a900473ffffffffffffffffffffffffffffffffffffffff169050919050565b60006105138261084c565b90508073ffffffffffffffffffffffffffffffffffffffff168373ffffffffffffffffffffffffffffffffffffffff1603610583576040517f08c379a000000000000000000000000000000000000000000000000000000000815260040161057a9061293b565b60405180910390fd5b8073ffffffffffffffffffffffffffffffffffffffff166105a2610d15565b73ffffffffffffffffffffffffffffffffffffffff1614806105d157506105d0816105cb610d15565b610b39565b5b610610576040517f08c379a0000000000000000000000000000000000000000000000000000000008152600401610607906129cd565b60405180910390fd5b61061a8383610d1d565b505050565b6000600880549050905090565b61063d610637610d15565b82610dd6565b61067c576040517f08c379a000000000000000000000000000000000000000000000000000000000815260040161067390612a5f565b60405180910390fd5b610687838383610e6b565b505050565b6000610697836108d2565b82106106d8576040517f08c379a00000000000000000000000000000000000000000000000000000000081526004016106cf90612af1565b60405180910390fd5b600660008473ffffffffffffffffffffffffffffffffffffffff1673ffffffffffffffffffffffffffffffffffffffff168152602001908152602001600020600083815260200190815260200160002054905092915050565b610739611164565b6000610745600b6111e2565b9050610751600b6111f0565b61075b8282611206565b5050565b61077a83838360405180602001604052806000815250610a6f565b505050565b61079061078a610d15565b82610dd6565b6107cf576040517f08c379a00000000000000000000000000000000000000000000000000000000081526004016107c690612a5f565b60405180910390fd5b6107d881611224565b50565b60006107e561061f565b8210610826576040517f08c379a000000000000000000000000000000000000000000000000000000000815260040161081d90612b83565b60405180910390fd5b6008828154811061083a57610839612ba3565b5b90600052602060002001549050919050565b60008061085883611372565b9050600073ffffffffffffffffffffffffffffffffffffffff168173ffffffffffffffffffffffffffffffffffffffff16036108c9576040517f08c379a00000000000000000000000000000000000000000000000000000000081526004016108c090612c1e565b60405180910390fd5b80915050919050565b60008073ffffffffffffffffffffffffffffffffffffffff168273ffffffffffffffffffffffffffffffffffffffff1603610942576040517f08c379a000000000000000000000000000000000000000000000000000000000815260040161093990612cb0565b60405180910390fd5b600360008373ffffffffffffffffffffffffffffffffffffffff1673ffffffffffffffffffffffffffffffffffffffff168152602001908152602001600020549050919050565b610991611164565b61099b60006113af565b565b6000600a60009054906101000a900473ffffffffffffffffffffffffffffffffffffffff16905090565b6060600180546109d690612898565b80601f0160208091040260200160405190810160405280929190818152602001828054610a0290612898565b8015610a4f5780601f10610a2457610100808354040283529160200191610a4f565b820191906000526020600020905b815481529060010190602001808311610a3257829003601f168201915b5050505050905090565b610a6b610a64610d15565b8383611475565b5050565b610a80610a7a610d15565b83610dd6565b610abf576040517f08c379a0000000000000000000000000000000000000000000000000000000008152600401610ab690612a5f565b60405180910390fd5b610acb848484846115e1565b50505050565b6060610adc82610cca565b6000610ae661163d565b90506000815111610b065760405180602001604052806000815250610b31565b80610b1084611654565b604051602001610b21929190612d0c565b6040516020818303038152906040525b915050919050565b6000600560008473ffffffffffffffffffffffffffffffffffffffff1673ffffffffffffffffffffffffffffffffffffffff16815260200190815260200160002060008373ffffffffffffffffffffffffffffffffffffffff1673ffffffffffffffffffffffffffffffffffffffff16815260200190815260200160002060009054906101000a900460ff16905092915050565b610bd5611164565b600073ffffffffffffffffffffffffffffffffffffffff168173ffffffffffffffffffffffffffffffffffffffff1603610c44576040517f08c379a0000000000000000000000000000000000000000000000000000000008152600401610c3b90612da2565b60405180910390fd5b610c4d816113af565b50565b60007f780e9d63000000000000000000000000000000000000000000000000000000007bffffffffffffffffffffffffffffffffffffffffffffffffffffffff1916827bffffffffffffffffffffffffffffffffffffffffffffffffffffffff19161480610cc35750610cc282611722565b5b9050919050565b610cd381611804565b610d12576040517f08c379a0000000000000000000000000000000000000000000000000000000008152600401610d0990612c1e565b60405180910390fd5b50565b600033905090565b816004600083815260200190815260200160002060006101000a81548173ffffffffffffffffffffffffffffffffffffffff021916908373ffffffffffffffffffffffffffffffffffffffff160217905550808273ffffffffffffffffffffffffffffffffffffffff16610d908361084c565b73ffffffffffffffffffffffffffffffffffffffff167f8c5be1e5ebec7d5bd14f71427d1e84f3dd0314c0f7b2291e5b200ac8c7c3b92560405160405180910390a45050565b600080610de28361084c565b90508073ffffffffffffffffffffffffffffffffffffffff168473ffffffffffffffffffffffffffffffffffffffff161480610e245750610e238185610b39565b5b80610e6257508373ffffffffffffffffffffffffffffffffffffffff16610e4a846104c2565b73ffffffffffffffffffffffffffffffffffffffff16145b91505092915050565b8273ffffffffffffffffffffffffffffffffffffffff16610e8b8261084c565b73ffffffffffffffffffffffffffffffffffffffff1614610ee1576040517f08c379a0000000000000000000000000000000000000000000000000000000008152600401610ed890612e34565b60405180910390fd5b600073ffffffffffffffffffffffffffffffffffffffff168273ffffffffffffffffffffffffffffffffffffffff1603610f50576040517f08c379a0000000000000000000000000000000000000000000000000000000008152600401610f4790612ec6565b60405180910390fd5b610f5d8383836001611845565b8273ffffffffffffffffffffffffffffffffffffffff16610f7d8261084c565b73ffffffffffffffffffffffffffffffffffffffff1614610fd3576040517f08c379a0000000000000000000000000000000000000000000000000000000008152600401610fca90612e34565b60405180910390fd5b6004600082815260200190815260200160002060006101000a81549073ffffffffffffffffffffffffffffffffffffffff02191690556001600360008573ffffffffffffffffffffffffffffffffffffffff1673ffffffffffffffffffffffffffffffffffffffff168152602001908152602001600020600082825403925050819055506001600360008473ffffffffffffffffffffffffffffffffffffffff1673ffffffffffffffffffffffffffffffffffffffff16815260200190815260200160002060008282540192505081905550816002600083815260200190815260200160002060006101000a81548173ffffffffffffffffffffffffffffffffffffffff021916908373ffffffffffffffffffffffffffffffffffffffff160217905550808273ffffffffffffffffffffffffffffffffffffffff168473ffffffffffffffffffffffffffffffffffffffff167fddf252ad1be2c89b69c2b068fc378daa952ba7f163c4a11628f55a4df523b3ef60405160405180910390a461115f8383836001611857565b505050565b61116c610d15565b73ffffffffffffffffffffffffffffffffffffffff1661118a61099d565b73ffffffffffffffffffffffffffffffffffffffff16146111e0576040517f08c379a00000000000000000000000000000000000000000000000000000000081526004016111d790612f32565b60405180910390fd5b565b600081600001549050919050565b6001816000016000828254019250508190555050565b61122082826040518060200160405280600081525061185d565b5050565b600061122f8261084c565b905061123f816000846001611845565b6112488261084c565b90506004600083815260200190815260200160002060006101000a81549073ffffffffffffffffffffffffffffffffffffffff02191690556001600360008373ffffffffffffffffffffffffffffffffffffffff1673ffffffffffffffffffffffffffffffffffffffff168152602001908152602001600020600082825403925050819055506002600083815260200190815260200160002060006101000a81549073ffffffffffffffffffffffffffffffffffffffff021916905581600073ffffffffffffffffffffffffffffffffffffffff168273ffffffffffffffffffffffffffffffffffffffff167fddf252ad1be2c89b69c2b068fc378daa952ba7f163c4a11628f55a4df523b3ef60405160405180910390a461136e816000846001611857565b5050565b60006002600083815260200190815260200160002060009054906101000a900473ffffffffffffffffffffffffffffffffffffffff169050919050565b6000600a60009054906101000a900473ffffffffffffffffffffffffffffffffffffffff16905081600a60006101000a81548173ffffffffffffffffffffffffffffffffffffffff021916908373ffffffffffffffffffffffffffffffffffffffff1602179055508173ffffffffffffffffffffffffffffffffffffffff168173ffffffffffffffffffffffffffffffffffffffff167f8be0079c531659141344cd1fd0a4f28419497f9722a3daafe3b4186f6b6457e060405160405180910390a35050565b8173ffffffffffffffffffffffffffffffffffffffff168373ffffffffffffffffffffffffffffffffffffffff16036114e3576040517f08c379a00000000000000000000000000000000000000000000000000000000081526004016114da90612f9e565b60405180910390fd5b80600560008573ffffffffffffffffffffffffffffffffffffffff1673ffffffffffffffffffffffffffffffffffffffff16815260200190815260200160002060008473ffffffffffffffffffffffffffffffffffffffff1673ffffffffffffffffffffffffffffffffffffffff16815260200190815260200160002060006101000a81548160ff0219169083151502179055508173ffffffffffffffffffffffffffffffffffffffff168373ffffffffffffffffffffffffffffffffffffffff167f17307eab39ab6107e8899845ad3d59bd9653f200f220920489ca2b5937696c31836040516115d4919061235a565b60405180910390a3505050565b6115ec848484610e6b565b6115f8848484846118b8565b611637576040517f08c379a000000000000000000000000000000000000000000000000000000000815260040161162e90613030565b60405180910390fd5b50505050565b606060405180602001604052806000815250905090565b60606000600161166384611a3f565b01905060008167ffffffffffffffff8111156116825761168161267b565b5b6040519080825280601f01601f1916602001820160405280156116b45781602001600182028036833780820191505090505b509050600082602001820190505b600115611717578080600190039150507f3031323334353637383961626364656600000000000000000000000000000000600a86061a8153600a858161170b5761170a613050565b5b049450600085036116c2575b819350505050919050565b60007f80ac58cd000000000000000000000000000000000000000000000000000000007bffffffffffffffffffffffffffffffffffffffffffffffffffffffff1916827bffffffffffffffffffffffffffffffffffffffffffffffffffffffff191614806117ed57507f5b5e139f000000000000000000000000000000000000000000000000000000007bffffffffffffffffffffffffffffffffffffffffffffffffffffffff1916827bffffffffffffffffffffffffffffffffffffffffffffffffffffffff1916145b806117fd57506117fc82611b92565b5b9050919050565b60008073ffffffffffffffffffffffffffffffffffffffff1661182683611372565b73ffffffffffffffffffffffffffffffffffffffff1614159050919050565b61185184848484611bfc565b50505050565b50505050565b6118678383611d5a565b61187460008484846118b8565b6118b3576040517f08c379a00000000000000000000000000000000000000000000000000000000081526004016118aa90613030565b60405180910390fd5b505050565b60006118d98473ffffffffffffffffffffffffffffffffffffffff16611f77565b15611a32578373ffffffffffffffffffffffffffffffffffffffff1663150b7a02611902610d15565b8786866040518563ffffffff1660e01b815260040161192494939291906130d4565b6020604051808303816000875af192505050801561196057506040513d601f19601f8201168201806040525081019061195d9190613135565b60015b6119e2573d8060008114611990576040519150601f19603f3d011682016040523d82523d6000602084013e611995565b606091505b5060008151036119da576040517f08c379a00000000000000000000000000000000000000000000000000000000081526004016119d190613030565b60405180910390fd5b805181602001fd5b63150b7a0260e01b7bffffffffffffffffffffffffffffffffffffffffffffffffffffffff1916817bffffffffffffffffffffffffffffffffffffffffffffffffffffffff191614915050611a37565b600190505b949350505050565b600080600090507a184f03e93ff9f4daa797ed6e38ed64bf6a1f0100000000000000008310611a9d577a184f03e93ff9f4daa797ed6e38ed64bf6a1f0100000000000000008381611a9357611a92613050565b5b0492506040810190505b6d04ee2d6d415b85acef81000000008310611ada576d04ee2d6d415b85acef81000000008381611ad057611acf613050565b5b0492506020810190505b662386f26fc100008310611b0957662386f26fc100008381611aff57611afe613050565b5b0492506010810190505b6305f5e1008310611b32576305f5e1008381611b2857611b27613050565b5b0492506008810190505b6127108310611b57576127108381611b4d57611b4c613050565b5b0492506004810190505b60648310611b7a5760648381611b7057611b6f613050565b5b0492506002810190505b600a8310611b89576001810190505b80915050919050565b60007f01ffc9a7000000000000000000000000000000000000000000000000000000007bffffffffffffffffffffffffffffffffffffffffffffffffffffffff1916827bffffffffffffffffffffffffffffffffffffffffffffffffffffffff1916149050919050565b611c0884848484611f9a565b6001811115611c4c576040517f08c379a0000000000000000000000000000000000000000000000000000000008152600401611c43906131d4565b60405180910390fd5b6000829050600073ffffffffffffffffffffffffffffffffffffffff168573ffffffffffffffffffffffffffffffffffffffff1603611c9357611c8e81611fa0565b611cd2565b8373ffffffffffffffffffffffffffffffffffffffff168573ffffffffffffffffffffffffffffffffffffffff1614611cd157611cd08582611fe9565b5b5b600073ffffffffffffffffffffffffffffffffffffffff168473ffffffffffffffffffffffffffffffffffffffff1603611d1457611d0f81612156565b611d53565b8473ffffffffffffffffffffffffffffffffffffffff168473ffffffffffffffffffffffffffffffffffffffff1614611d5257611d518482612227565b5b5b5050505050565b600073ffffffffffffffffffffffffffffffffffffffff168273ffffffffffffffffffffffffffffffffffffffff1603611dc9576040517f08c379a0000000000000000000000000000000000000000000000000000000008152600401611dc090613240565b60405180910390fd5b611dd281611804565b15611e12576040517f08c379a0000000000000000000000000000000000000000000000000000000008152600401611e09906132ac565b60405180910390fd5b611e20600083836001611845565b611e2981611804565b15611e69576040517f08c379a0000000000000000000000000000000000000000000000000000000008152600401611e60906132ac565b60405180910390fd5b6001600360008473ffffffffffffffffffffffffffffffffffffffff1673ffffffffffffffffffffffffffffffffffffffff16815260200190815260200160002060008282540192505081905550816002600083815260200190815260200160002060006101000a81548173ffffffffffffffffffffffffffffffffffffffff021916908373ffffffffffffffffffffffffffffffffffffffff160217905550808273ffffffffffffffffffffffffffffffffffffffff16600073ffffffffffffffffffffffffffffffffffffffff167fddf252ad1be2c89b69c2b068fc378daa952ba7f163c4a11628f55a4df523b3ef60405160405180910390a4611f73600083836001611857565b5050565b6000808273ffffffffffffffffffffffffffffffffffffffff163b119050919050565b50505050565b6008805490506009600083815260200190815260200160002081905550600881908060018154018082558091505060019003906000526020600020016000909190919091505550565b60006001611ff6846108d2565b61200091906132fb565b90506000600760008481526020019081526020016000205490508181146120e5576000600660008673ffffffffffffffffffffffffffffffffffffffff1673ffffffffffffffffffffffffffffffffffffffff168152602001908152602001600020600084815260200190815260200160002054905080600660008773ffffffffffffffffffffffffffffffffffffffff1673ffffffffffffffffffffffffffffffffffffffff168152602001908152602001600020600084815260200190815260200160002081905550816007600083815260200190815260200160002081905550505b6007600084815260200190815260200160002060009055600660008573ffffffffffffffffffffffffffffffffffffffff1673ffffffffffffffffffffffffffffffffffffffff16815260200190815260200160002060008381526020019081526020016000206000905550505050565b6000600160088054905061216a91906132fb565b905060006009600084815260200190815260200160002054905060006008838154811061219a57612199612ba3565b5b9060005260206000200154905080600883815481106121bc576121bb612ba3565b5b90600052602060002001819055508160096000838152602001908152602001600020819055506009600085815260200190815260200160002060009055600880548061220b5761220a61332f565b5b6001900381819060005260206000200160009055905550505050565b6000612232836108d2565b905081600660008573ffffffffffffffffffffffffffffffffffffffff1673ffffffffffffffffffffffffffffffffffffffff168152602001908152602001600020600083815260200190815260200160002081905550806007600084815260200190815260200160002081905550505050565b6000604051905090565b600080fd5b600080fd5b60007fffffffff0000000000000000000000000000000000000000000000000000000082169050919050565b6122ef816122ba565b81146122fa57600080fd5b50565b60008135905061230c816122e6565b92915050565b600060208284031215612328576123276122b0565b5b6000612336848285016122fd565b91505092915050565b60008115159050919050565b6123548161233f565b82525050565b600060208201905061236f600083018461234b565b92915050565b600081519050919050565b600082825260208201905092915050565b60005b838110156123af578082015181840152602081019050612394565b838111156123be576000848401525b50505050565b6000601f19601f8301169050919050565b60006123e082612375565b6123ea8185612380565b93506123fa818560208601612391565b612403816123c4565b840191505092915050565b6000602082019050818103600083015261242881846123d5565b905092915050565b6000819050919050565b61244381612430565b811461244e57600080fd5b50565b6000813590506124608161243a565b92915050565b60006020828403121561247c5761247b6122b0565b5b600061248a84828501612451565b91505092915050565b600073ffffffffffffffffffffffffffffffffffffffff82169050919050565b60006124be82612493565b9050919050565b6124ce816124b3565b82525050565b60006020820190506124e960008301846124c5565b92915050565b6124f8816124b3565b811461250357600080fd5b50565b600081359050612515816124ef565b92915050565b60008060408385031215612532576125316122b0565b5b600061254085828601612506565b925050602061255185828601612451565b9150509250929050565b61256481612430565b82525050565b600060208201905061257f600083018461255b565b92915050565b60008060006060848603121561259e5761259d6122b0565b5b60006125ac86828701612506565b93505060206125bd86828701612506565b92505060406125ce86828701612451565b9150509250925092565b6000602082840312156125ee576125ed6122b0565b5b60006125fc84828501612506565b91505092915050565b61260e8161233f565b811461261957600080fd5b50565b60008135905061262b81612605565b92915050565b60008060408385031215612648576126476122b0565b5b600061265685828601612506565b92505060206126678582860161261c565b9150509250929050565b600080fd5b600080fd5b7f4e487b7100000000000000000000000000000000000000000000000000000000600052604160045260246000fd5b6126b3826123c4565b810181811067ffffffffffffffff821117156126d2576126d161267b565b5b80604052505050565b60006126e56122a6565b90506126f182826126aa565b919050565b600067ffffffffffffffff8211156127115761271061267b565b5b61271a826123c4565b9050602081019050919050565b82818337600083830152505050565b6000612749612744846126f6565b6126db565b90508281526020810184848401111561276557612764612676565b5b612770848285612727565b509392505050565b600082601f83011261278d5761278c612671565b5b813561279d848260208601612736565b91505092915050565b600080600080608085870312156127c0576127bf6122b0565b5b60006127ce87828801612506565b94505060206127df87828801612506565b93505060406127f087828801612451565b925050606085013567ffffffffffffffff811115612811576128106122b5565b5b61281d87828801612778565b91505092959194509250565b600080604083850312156128405761283f6122b0565b5b600061284e85828601612506565b925050602061285f85828601612506565b9150509250929050565b7f4e487b7100000000000000000000000000000000000000000000000000000000600052602260045260246000fd5b600060028204905060018216806128b057607f821691505b6020821081036128c3576128c2612869565b5b50919050565b7f4552433732313a20617070726f76616c20746f2063757272656e74206f776e6560008201527f7200000000000000000000000000000000000000000000000000000000000000602082015250565b6000612925602183612380565b9150612930826128c9565b604082019050919050565b6000602082019050818103600083015261295481612918565b9050919050565b7f4552433732313a20617070726f76652063616c6c6572206973206e6f7420746f60008201527f6b656e206f776e6572206f7220617070726f76656420666f7220616c6c000000602082015250565b60006129b7603d83612380565b91506129c28261295b565b604082019050919050565b600060208201905081810360008301526129e6816129aa565b9050919050565b7f4552433732313a2063616c6c6572206973206e6f7420746f6b656e206f776e6560008201527f72206f7220617070726f76656400000000000000000000000000000000000000602082015250565b6000612a49602d83612380565b9150612a54826129ed565b604082019050919050565b60006020820190508181036000830152612a7881612a3c565b9050919050565b7f455243373231456e756d657261626c653a206f776e657220696e646578206f7560008201527f74206f6620626f756e6473000000000000000000000000000000000000000000602082015250565b6000612adb602b83612380565b9150612ae682612a7f565b604082019050919050565b60006020820190508181036000830152612b0a81612ace565b9050919050565b7f455243373231456e756d657261626c653a20676c6f62616c20696e646578206f60008201527f7574206f6620626f756e64730000000000000000000000000000000000000000602082015250565b6000612b6d602c83612380565b9150612b7882612b11565b604082019050919050565b60006020820190508181036000830152612b9c81612b60565b9050919050565b7f4e487b7100000000000000000000000000000000000000000000000000000000600052603260045260246000fd5b7f4552433732313a20696e76616c696420746f6b656e2049440000000000000000600082015250565b6000612c08601883612380565b9150612c1382612bd2565b602082019050919050565b60006020820190508181036000830152612c3781612bfb565b9050919050565b7f4552433732313a2061646472657373207a65726f206973206e6f74206120766160008201527f6c6964206f776e65720000000000000000000000000000000000000000000000602082015250565b6000612c9a602983612380565b9150612ca582612c3e565b604082019050919050565b60006020820190508181036000830152612cc981612c8d565b9050919050565b600081905092915050565b6000612ce682612375565b612cf08185612cd0565b9350612d00818560208601612391565b80840191505092915050565b6000612d188285612cdb565b9150612d248284612cdb565b91508190509392505050565b7f4f776e61626c653a206e6577206f776e657220697320746865207a65726f206160008201527f6464726573730000000000000000000000000000000000000000000000000000602082015250565b6000612d8c602683612380565b9150612d9782612d30565b604082019050919050565b60006020820190508181036000830152612dbb81612d7f565b9050919050565b7f4552433732313a207472616e736665722066726f6d20696e636f72726563742060008201527f6f776e6572000000000000000000000000000000000000000000000000000000602082015250565b6000612e1e602583612380565b9150612e2982612dc2565b604082019050919050565b60006020820190508181036000830152612e4d81612e11565b9050919050565b7f4552433732313a207472616e7366657220746f20746865207a65726f2061646460008201527f7265737300000000000000000000000000000000000000000000000000000000602082015250565b6000612eb0602483612380565b9150612ebb82612e54565b604082019050919050565b60006020820190508181036000830152612edf81612ea3565b9050919050565b7f4f776e61626c653a2063616c6c6572206973206e6f7420746865206f776e6572600082015250565b6000612f1c602083612380565b9150612f2782612ee6565b602082019050919050565b60006020820190508181036000830152612f4b81612f0f565b9050919050565b7f4552433732313a20617070726f766520746f2063616c6c657200000000000000600082015250565b6000612f88601983612380565b9150612f9382612f52565b602082019050919050565b60006020820190508181036000830152612fb781612f7b565b9050919050565b7f4552433732313a207472616e7366657220746f206e6f6e20455243373231526560008201527f63656976657220696d706c656d656e7465720000000000000000000000000000602082015250565b600061301a603283612380565b915061302582612fbe565b604082019050919050565b600060208201905081810360008301526130498161300d565b9050919050565b7f4e487b7100000000000000000000000000000000000000000000000000000000600052601260045260246000fd5b600081519050919050565b600082825260208201905092915050565b60006130a68261307f565b6130b0818561308a565b93506130c0818560208601612391565b6130c9816123c4565b840191505092915050565b60006080820190506130e960008301876124c5565b6130f660208301866124c5565b613103604083018561255b565b8181036060830152613115818461309b565b905095945050505050565b60008151905061312f816122e6565b92915050565b60006020828403121561314b5761314a6122b0565b5b600061315984828501613120565b91505092915050565b7f455243373231456e756d657261626c653a20636f6e736563757469766520747260008201527f616e7366657273206e6f7420737570706f727465640000000000000000000000602082015250565b60006131be603583612380565b91506131c982613162565b604082019050919050565b600060208201905081810360008301526131ed816131b1565b9050919050565b7f4552433732313a206d696e7420746f20746865207a65726f2061646472657373600082015250565b600061322a602083612380565b9150613235826131f4565b602082019050919050565b600060208201905081810360008301526132598161321d565b9050919050565b7f4552433732313a20746f6b656e20616c7265616479206d696e74656400000000600082015250565b6000613296601c83612380565b91506132a182613260565b602082019050919050565b600060208201905081810360008301526132c581613289565b9050919050565b7f4e487b7100000000000000000000000000000000000000000000000000000000600052601160045260246000fd5b600061330682612430565b915061331183612430565b925082821015613324576133236132cc565b5b828203905092915050565b7f4e487b7100000000000000000000000000000000000000000000000000000000600052603160045260246000fdfea26469706673582212202e7e1e42ca9d6ef6e99d7cbaf08c9d67062b8f943c97908a9acb106c924d2d8d64736f6c634300080d0033",
  "immutableReferences": {},
  "source": "// SPDX-License-Identifier: MIT\npragma solidity ^0.8.9;\nimport \"@openzeppelin/contracts/token/ERC721/ERC721.sol\";\nimport \"@openzeppelin/contracts/token/ERC721/extensions/ERC721Enumerable.sol\";\nimport \"@openzeppelin/contracts/token/ERC721/extensions/ERC721Burnable.sol\";\nimport \"@openzeppelin/contracts/access/Ownable.sol\";\nimport \"@openzeppelin/contracts/utils/Counters.sol\";\nimport \"@openzeppelin/contracts/utils/Strings.sol\";\nimport \"@openzeppelin/contracts/utils/Context.sol\";\n\ncontract HyperCartridge is ERC721, ERC721Enumerable, ERC721Burnable, Ownable {\n  using Counters for Counters.Counter;\n\n  Counters.Counter private _tokenIdCounter;\n\n\tmapping(uint256 => string) private _states;\n\n\tevent StateChanged(uint256 indexed tokenId);\n\n  constructor() ERC721(\"HyperCartridge\", \"HCart\") {}\n  \n  function safeMint(address to) public onlyOwner {\n    uint256 tokenId = _tokenIdCounter.current();\n    _tokenIdCounter.increment();\n    _safeMint(to, tokenId);\n  }\n\n  // Required overrides\n\n  function _beforeTokenTransfer(address from, address to, uint256 tokenId, uint256 batchSize) internal override(ERC721, ERC721Enumerable) {\n    super._beforeTokenTransfer(from, to, tokenId, batchSize);\n  }\n  function supportsInterface(bytes4 interfaceId) public view override(ERC721, ERC721Enumerable) returns (bool) {\n    return super.supportsInterface(interfaceId);\n  }\n}",
  "sourcePath": "/Users/robmorris/Development/funDAOmental/hypercartridge/contracts/contracts/HyperCartridge.sol",
  "compiler": {
    "name": "solc",
    "version": "0.8.13+commit.abaa5c0e.Emscripten.clang"
  },
  "schemaVersion": "3.4.13",
  "updatedAt": "2023-04-15T03:49:31.017Z",
  "devdoc": {
    "kind": "dev",
    "methods": {
      "approve(address,uint256)": {
        "details": "See {IERC721-approve}."
      },
      "balanceOf(address)": {
        "details": "See {IERC721-balanceOf}."
      },
      "burn(uint256)": {
        "details": "Burns `tokenId`. See {ERC721-_burn}. Requirements: - The caller must own `tokenId` or be an approved operator."
      },
      "getApproved(uint256)": {
        "details": "See {IERC721-getApproved}."
      },
      "isApprovedForAll(address,address)": {
        "details": "See {IERC721-isApprovedForAll}."
      },
      "name()": {
        "details": "See {IERC721Metadata-name}."
      },
      "owner()": {
        "details": "Returns the address of the current owner."
      },
      "ownerOf(uint256)": {
        "details": "See {IERC721-ownerOf}."
      },
      "renounceOwnership()": {
        "details": "Leaves the contract without owner. It will not be possible to call `onlyOwner` functions anymore. Can only be called by the current owner. NOTE: Renouncing ownership will leave the contract without an owner, thereby removing any functionality that is only available to the owner."
      },
      "safeTransferFrom(address,address,uint256)": {
        "details": "See {IERC721-safeTransferFrom}."
      },
      "safeTransferFrom(address,address,uint256,bytes)": {
        "details": "See {IERC721-safeTransferFrom}."
      },
      "setApprovalForAll(address,bool)": {
        "details": "See {IERC721-setApprovalForAll}."
      },
      "symbol()": {
        "details": "See {IERC721Metadata-symbol}."
      },
      "tokenByIndex(uint256)": {
        "details": "See {IERC721Enumerable-tokenByIndex}."
      },
      "tokenOfOwnerByIndex(address,uint256)": {
        "details": "See {IERC721Enumerable-tokenOfOwnerByIndex}."
      },
      "tokenURI(uint256)": {
        "details": "See {IERC721Metadata-tokenURI}."
      },
      "totalSupply()": {
        "details": "See {IERC721Enumerable-totalSupply}."
      },
      "transferFrom(address,address,uint256)": {
        "details": "See {IERC721-transferFrom}."
      },
      "transferOwnership(address)": {
        "details": "Transfers ownership of the contract to a new account (`newOwner`). Can only be called by the current owner."
      }
    },
    "version": 1
  },
  "userdoc": {
    "kind": "user",
    "methods": {},
    "version": 1
  }
}