{
  "contractName": "HyperCartridge",
  "abi": [
    {
      "inputs": [],
      "stateMutability": "nonpayable",
      "type": "constructor"
    },
    {
      "anonymous": false,
      "inputs": [
        {
          "indexed": true,
          "internalType": "address",
          "name": "owner",
          "type": "address"
        },
        {
          "indexed": true,
          "internalType": "address",
          "name": "approved",
          "type": "address"
        },
        {
          "indexed": true,
          "internalType": "uint256",
          "name": "tokenId",
          "type": "uint256"
        }
      ],
      "name": "Approval",
      "type": "event"
    },
    {
      "anonymous": false,
      "inputs": [
        {
          "indexed": true,
          "internalType": "address",
          "name": "owner",
          "type": "address"
        },
        {
          "indexed": true,
          "internalType": "address",
          "name": "operator",
          "type": "address"
        },
        {
          "indexed": false,
          "internalType": "bool",
          "name": "approved",
          "type": "bool"
        }
      ],
      "name": "ApprovalForAll",
      "type": "event"
    },
    {
      "anonymous": false,
      "inputs": [
        {
          "indexed": true,
          "internalType": "address",
          "name": "previousOwner",
          "type": "address"
        },
        {
          "indexed": true,
          "internalType": "address",
          "name": "newOwner",
          "type": "address"
        }
      ],
      "name": "OwnershipTransferred",
      "type": "event"
    },
    {
      "anonymous": false,
      "inputs": [
        {
          "indexed": true,
          "internalType": "uint256",
          "name": "tokenId",
          "type": "uint256"
        }
      ],
      "name": "StateChanged",
      "type": "event"
    },
    {
      "anonymous": false,
      "inputs": [
        {
          "indexed": true,
          "internalType": "address",
          "name": "from",
          "type": "address"
        },
        {
          "indexed": true,
          "internalType": "address",
          "name": "to",
          "type": "address"
        },
        {
          "indexed": true,
          "internalType": "uint256",
          "name": "tokenId",
          "type": "uint256"
        }
      ],
      "name": "Transfer",
      "type": "event"
    },
    {
      "inputs": [
        {
          "internalType": "address",
          "name": "to",
          "type": "address"
        },
        {
          "internalType": "uint256",
          "name": "tokenId",
          "type": "uint256"
        }
      ],
      "name": "approve",
      "outputs": [],
      "stateMutability": "nonpayable",
      "type": "function"
    },
    {
      "inputs": [
        {
          "internalType": "address",
          "name": "owner",
          "type": "address"
        }
      ],
      "name": "balanceOf",
      "outputs": [
        {
          "internalType": "uint256",
          "name": "",
          "type": "uint256"
        }
      ],
      "stateMutability": "view",
      "type": "function"
    },
    {
      "inputs": [
        {
          "internalType": "uint256",
          "name": "tokenId",
          "type": "uint256"
        }
      ],
      "name": "burn",
      "outputs": [],
      "stateMutability": "nonpayable",
      "type": "function"
    },
    {
      "inputs": [
        {
          "internalType": "uint256",
          "name": "tokenId",
          "type": "uint256"
        }
      ],
      "name": "getApproved",
      "outputs": [
        {
          "internalType": "address",
          "name": "",
          "type": "address"
        }
      ],
      "stateMutability": "view",
      "type": "function"
    },
    {
      "inputs": [
        {
          "internalType": "address",
          "name": "owner",
          "type": "address"
        },
        {
          "internalType": "address",
          "name": "operator",
          "type": "address"
        }
      ],
      "name": "isApprovedForAll",
      "outputs": [
        {
          "internalType": "bool",
          "name": "",
          "type": "bool"
        }
      ],
      "stateMutability": "view",
      "type": "function"
    },
    {
      "inputs": [],
      "name": "name",
      "outputs": [
        {
          "internalType": "string",
          "name": "",
          "type": "string"
        }
      ],
      "stateMutability": "view",
      "type": "function"
    },
    {
      "inputs": [],
      "name": "owner",
      "outputs": [
        {
          "internalType": "address",
          "name": "",
          "type": "address"
        }
      ],
      "stateMutability": "view",
      "type": "function"
    },
    {
      "inputs": [
        {
          "internalType": "uint256",
          "name": "tokenId",
          "type": "uint256"
        }
      ],
      "name": "ownerOf",
      "outputs": [
        {
          "internalType": "address",
          "name": "",
          "type": "address"
        }
      ],
      "stateMutability": "view",
      "type": "function"
    },
    {
      "inputs": [],
      "name": "renounceOwnership",
      "outputs": [],
      "stateMutability": "nonpayable",
      "type": "function"
    },
    {
      "inputs": [
        {
          "internalType": "address",
          "name": "from",
          "type": "address"
        },
        {
          "internalType": "address",
          "name": "to",
          "type": "address"
        },
        {
          "internalType": "uint256",
          "name": "tokenId",
          "type": "uint256"
        }
      ],
      "name": "safeTransferFrom",
      "outputs": [],
      "stateMutability": "nonpayable",
      "type": "function"
    },
    {
      "inputs": [
        {
          "internalType": "address",
          "name": "from",
          "type": "address"
        },
        {
          "internalType": "address",
          "name": "to",
          "type": "address"
        },
        {
          "internalType": "uint256",
          "name": "tokenId",
          "type": "uint256"
        },
        {
          "internalType": "bytes",
          "name": "data",
          "type": "bytes"
        }
      ],
      "name": "safeTransferFrom",
      "outputs": [],
      "stateMutability": "nonpayable",
      "type": "function"
    },
    {
      "inputs": [
        {
          "internalType": "address",
          "name": "operator",
          "type": "address"
        },
        {
          "internalType": "bool",
          "name": "approved",
          "type": "bool"
        }
      ],
      "name": "setApprovalForAll",
      "outputs": [],
      "stateMutability": "nonpayable",
      "type": "function"
    },
    {
      "inputs": [],
      "name": "symbol",
      "outputs": [
        {
          "internalType": "string",
          "name": "",
          "type": "string"
        }
      ],
      "stateMutability": "view",
      "type": "function"
    },
    {
      "inputs": [
        {
          "internalType": "uint256",
          "name": "index",
          "type": "uint256"
        }
      ],
      "name": "tokenByIndex",
      "outputs": [
        {
          "internalType": "uint256",
          "name": "",
          "type": "uint256"
        }
      ],
      "stateMutability": "view",
      "type": "function"
    },
    {
      "inputs": [
        {
          "internalType": "address",
          "name": "owner",
          "type": "address"
        },
        {
          "internalType": "uint256",
          "name": "index",
          "type": "uint256"
        }
      ],
      "name": "tokenOfOwnerByIndex",
      "outputs": [
        {
          "internalType": "uint256",
          "name": "",
          "type": "uint256"
        }
      ],
      "stateMutability": "view",
      "type": "function"
    },
    {
      "inputs": [],
      "name": "totalSupply",
      "outputs": [
        {
          "internalType": "uint256",
          "name": "",
          "type": "uint256"
        }
      ],
      "stateMutability": "view",
      "type": "function"
    },
    {
      "inputs": [
        {
          "internalType": "address",
          "name": "from",
          "type": "address"
        },
        {
          "internalType": "address",
          "name": "to",
          "type": "address"
        },
        {
          "internalType": "uint256",
          "name": "tokenId",
          "type": "uint256"
        }
      ],
      "name": "transferFrom",
      "outputs": [],
      "stateMutability": "nonpayable",
      "type": "function"
    },
    {
      "inputs": [
        {
          "internalType": "address",
          "name": "newOwner",
          "type": "address"
        }
      ],
      "name": "transferOwnership",
      "outputs": [],
      "stateMutability": "nonpayable",
      "type": "function"
    },
    {
      "inputs": [
        {
          "internalType": "address",
          "name": "to",
          "type": "address"
        },
        {
          "internalType": "string",
          "name": "state",
          "type": "string"
        }
      ],
      "name": "mint",
      "outputs": [],
      "stateMutability": "nonpayable",
      "type": "function"
    },
    {
      "inputs": [
        {
          "internalType": "bytes4",
          "name": "interfaceId",
          "type": "bytes4"
        }
      ],
      "name": "supportsInterface",
      "outputs": [
        {
          "internalType": "bool",
          "name": "",
          "type": "bool"
        }
      ],
      "stateMutability": "view",
      "type": "function"
    },
    {
      "inputs": [
        {
          "internalType": "uint256",
          "name": "tokenId",
          "type": "uint256"
        }
      ],
      "name": "tokenURI",
      "outputs": [
        {
          "internalType": "string",
          "name": "",
          "type": "string"
        }
      ],
      "stateMutability": "view",
      "type": "function"
    },
    {
      "inputs": [
        {
          "internalType": "uint256",
          "name": "tokenId",
          "type": "uint256"
        },
        {
          "internalType": "string",
          "name": "state",
          "type": "string"
        }
      ],
      "name": "setState",
      "outputs": [],
      "stateMutability": "nonpayable",
      "type": "function"
    },
    {
      "inputs": [
        {
          "internalType": "uint256",
          "name": "tokenId",
          "type": "uint256"
        }
      ],
      "name": "getState",
      "outputs": [
        {
          "internalType": "string",
          "name": "",
          "type": "string"
        }
      ],
      "stateMutability": "view",
      "type": "function"
    }
  ],
  "bytecode": "0x60806040523480156200001157600080fd5b506040518060400160405280600e81526020017f48797065724361727472696467650000000000000000000000000000000000008152506040518060400160405280600581526020017f4843617274000000000000000000000000000000000000000000000000000000815250816000908051906020019062000096929190620001a6565b508060019080519060200190620000af929190620001a6565b505050620000d2620000c6620000d860201b60201c565b620000e060201b60201c565b620002ba565b600033905090565b6000600a60009054906101000a900473ffffffffffffffffffffffffffffffffffffffff16905081600a60006101000a81548173ffffffffffffffffffffffffffffffffffffffff021916908373ffffffffffffffffffffffffffffffffffffffff1602179055508173ffffffffffffffffffffffffffffffffffffffff168173ffffffffffffffffffffffffffffffffffffffff167f8be0079c531659141344cd1fd0a4f28419497f9722a3daafe3b4186f6b6457e060405160405180910390a35050565b828054620001b49062000285565b90600052602060002090601f016020900481019282620001d8576000855562000224565b82601f10620001f357805160ff191683800117855562000224565b8280016001018555821562000224579182015b828111156200022357825182559160200191906001019062000206565b5b50905062000233919062000237565b5090565b5b808211156200025257600081600090555060010162000238565b5090565b7f4e487b7100000000000000000000000000000000000000000000000000000000600052602260045260246000fd5b600060028204905060018216806200029e57607f821691505b602082108103620002b457620002b362000256565b5b50919050565b613a8e80620002ca6000396000f3fe608060405234801561001057600080fd5b506004361061014d5760003560e01c80636352211e116100c3578063ab6cbfe01161007c578063ab6cbfe0146103b0578063b88d4fde146103cc578063c87b56dd146103e8578063d0def52114610418578063e985e9c514610434578063f2fde38b146104645761014d565b80636352211e146102ee57806370a082311461031e578063715018a61461034e5780638da5cb5b1461035857806395d89b4114610376578063a22cb465146103945761014d565b806323b872dd1161011557806323b872dd1461020a5780632f745c591461022657806342842e0e1461025657806342966c681461027257806344c9af281461028e5780634f6ccce7146102be5761014d565b806301ffc9a71461015257806306fdde0314610182578063081812fc146101a0578063095ea7b3146101d057806318160ddd146101ec575b600080fd5b61016c60048036038101906101679190612627565b610480565b604051610179919061266f565b60405180910390f35b61018a610492565b6040516101979190612723565b60405180910390f35b6101ba60048036038101906101b5919061277b565b610524565b6040516101c791906127e9565b60405180910390f35b6101ea60048036038101906101e59190612830565b61056a565b005b6101f4610681565b604051610201919061287f565b60405180910390f35b610224600480360381019061021f919061289a565b61068e565b005b610240600480360381019061023b9190612830565b6106ee565b60405161024d919061287f565b60405180910390f35b610270600480360381019061026b919061289a565b610793565b005b61028c6004803603810190610287919061277b565b6107b3565b005b6102a860048036038101906102a3919061277b565b61080f565b6040516102b59190612723565b60405180910390f35b6102d860048036038101906102d3919061277b565b6108fc565b6040516102e5919061287f565b60405180910390f35b6103086004803603810190610303919061277b565b61096d565b60405161031591906127e9565b60405180910390f35b610338600480360381019061033391906128ed565b6109f3565b604051610345919061287f565b60405180910390f35b610356610aaa565b005b610360610abe565b60405161036d91906127e9565b60405180910390f35b61037e610ae8565b60405161038b9190612723565b60405180910390f35b6103ae60048036038101906103a99190612946565b610b7a565b005b6103ca60048036038101906103c591906129eb565b610b90565b005b6103e660048036038101906103e19190612b7b565b610caa565b005b61040260048036038101906103fd919061277b565b610d0c565b60405161040f9190612723565b60405180910390f35b610432600480360381019061042d9190612bfe565b610d8f565b005b61044e60048036038101906104499190612c5e565b610dc2565b60405161045b919061266f565b60405180910390f35b61047e600480360381019061047991906128ed565b610e56565b005b600061048b82610ed9565b9050919050565b6060600080546104a190612ccd565b80601f01602080910402602001604051908101604052809291908181526020018280546104cd90612ccd565b801561051a5780601f106104ef5761010080835404028352916020019161051a565b820191906000526020600020905b8154815290600101906020018083116104fd57829003601f168201915b5050505050905090565b600061052f82610f53565b6004600083815260200190815260200160002060009054906101000a900473ffffffffffffffffffffffffffffffffffffffff169050919050565b60006105758261096d565b90508073ffffffffffffffffffffffffffffffffffffffff168373ffffffffffffffffffffffffffffffffffffffff16036105e5576040517f08c379a00000000000000000000000000000000000000000000000000000000081526004016105dc90612d70565b60405180910390fd5b8073ffffffffffffffffffffffffffffffffffffffff16610604610f9e565b73ffffffffffffffffffffffffffffffffffffffff16148061063357506106328161062d610f9e565b610dc2565b5b610672576040517f08c379a000000000000000000000000000000000000000000000000000000000815260040161066990612e02565b60405180910390fd5b61067c8383610fa6565b505050565b6000600880549050905090565b61069f610699610f9e565b8261105f565b6106de576040517f08c379a00000000000000000000000000000000000000000000000000000000081526004016106d590612e94565b60405180910390fd5b6106e98383836110f4565b505050565b60006106f9836109f3565b821061073a576040517f08c379a000000000000000000000000000000000000000000000000000000000815260040161073190612f26565b60405180910390fd5b600660008473ffffffffffffffffffffffffffffffffffffffff1673ffffffffffffffffffffffffffffffffffffffff168152602001908152602001600020600083815260200190815260200160002054905092915050565b6107ae83838360405180602001604052806000815250610caa565b505050565b6107c46107be610f9e565b8261105f565b610803576040517f08c379a00000000000000000000000000000000000000000000000000000000081526004016107fa90612e94565b60405180910390fd5b61080c816113ed565b50565b606061081a8261153b565b610859576040517f08c379a000000000000000000000000000000000000000000000000000000000815260040161085090612f92565b60405180910390fd5b600c6000838152602001908152602001600020805461087790612ccd565b80601f01602080910402602001604051908101604052809291908181526020018280546108a390612ccd565b80156108f05780601f106108c5576101008083540402835291602001916108f0565b820191906000526020600020905b8154815290600101906020018083116108d357829003601f168201915b50505050509050919050565b6000610906610681565b8210610947576040517f08c379a000000000000000000000000000000000000000000000000000000000815260040161093e90613024565b60405180910390fd5b6008828154811061095b5761095a613044565b5b90600052602060002001549050919050565b6000806109798361157c565b9050600073ffffffffffffffffffffffffffffffffffffffff168173ffffffffffffffffffffffffffffffffffffffff16036109ea576040517f08c379a00000000000000000000000000000000000000000000000000000000081526004016109e1906130bf565b60405180910390fd5b80915050919050565b60008073ffffffffffffffffffffffffffffffffffffffff168273ffffffffffffffffffffffffffffffffffffffff1603610a63576040517f08c379a0000000000000000000000000000000000000000000000000000000008152600401610a5a90613151565b60405180910390fd5b600360008373ffffffffffffffffffffffffffffffffffffffff1673ffffffffffffffffffffffffffffffffffffffff168152602001908152602001600020549050919050565b610ab26115b9565b610abc6000611637565b565b6000600a60009054906101000a900473ffffffffffffffffffffffffffffffffffffffff16905090565b606060018054610af790612ccd565b80601f0160208091040260200160405190810160405280929190818152602001828054610b2390612ccd565b8015610b705780601f10610b4557610100808354040283529160200191610b70565b820191906000526020600020905b815481529060010190602001808311610b5357829003601f168201915b5050505050905090565b610b8c610b85610f9e565b83836116fd565b5050565b610b998361153b565b610bd8576040517f08c379a0000000000000000000000000000000000000000000000000000000008152600401610bcf90612f92565b60405180910390fd5b610be0610f9e565b73ffffffffffffffffffffffffffffffffffffffff16610bff8461157c565b73ffffffffffffffffffffffffffffffffffffffff1614610c55576040517f08c379a0000000000000000000000000000000000000000000000000000000008152600401610c4c906131bd565b60405180910390fd5b8181600c60008681526020019081526020016000209190610c77929190612518565b50827f3c20f49e01bfae9c61bfff26b5d8341dd8463f895dd1db3d003cada4e59506d760405160405180910390a2505050565b610cbb610cb5610f9e565b8361105f565b610cfa576040517f08c379a0000000000000000000000000000000000000000000000000000000008152600401610cf190612e94565b60405180910390fd5b610d0684848484611869565b50505050565b6060610d178261153b565b610d56576040517f08c379a0000000000000000000000000000000000000000000000000000000008152600401610d4d90612f92565b60405180910390fd5b610d5f826118c5565b610d68836118c5565b604051602001610d799291906133e1565b6040516020818303038152906040529050919050565b610d99600b611993565b6000610da5600b6119a9565b9050610db184826119b7565b610dbc818484610b90565b50505050565b6000600560008473ffffffffffffffffffffffffffffffffffffffff1673ffffffffffffffffffffffffffffffffffffffff16815260200190815260200160002060008373ffffffffffffffffffffffffffffffffffffffff1673ffffffffffffffffffffffffffffffffffffffff16815260200190815260200160002060009054906101000a900460ff16905092915050565b610e5e6115b9565b600073ffffffffffffffffffffffffffffffffffffffff168173ffffffffffffffffffffffffffffffffffffffff1603610ecd576040517f08c379a0000000000000000000000000000000000000000000000000000000008152600401610ec49061349c565b60405180910390fd5b610ed681611637565b50565b60007f780e9d63000000000000000000000000000000000000000000000000000000007bffffffffffffffffffffffffffffffffffffffffffffffffffffffff1916827bffffffffffffffffffffffffffffffffffffffffffffffffffffffff19161480610f4c5750610f4b826119d5565b5b9050919050565b610f5c8161153b565b610f9b576040517f08c379a0000000000000000000000000000000000000000000000000000000008152600401610f92906130bf565b60405180910390fd5b50565b600033905090565b816004600083815260200190815260200160002060006101000a81548173ffffffffffffffffffffffffffffffffffffffff021916908373ffffffffffffffffffffffffffffffffffffffff160217905550808273ffffffffffffffffffffffffffffffffffffffff166110198361096d565b73ffffffffffffffffffffffffffffffffffffffff167f8c5be1e5ebec7d5bd14f71427d1e84f3dd0314c0f7b2291e5b200ac8c7c3b92560405160405180910390a45050565b60008061106b8361096d565b90508073ffffffffffffffffffffffffffffffffffffffff168473ffffffffffffffffffffffffffffffffffffffff1614806110ad57506110ac8185610dc2565b5b806110eb57508373ffffffffffffffffffffffffffffffffffffffff166110d384610524565b73ffffffffffffffffffffffffffffffffffffffff16145b91505092915050565b8273ffffffffffffffffffffffffffffffffffffffff166111148261096d565b73ffffffffffffffffffffffffffffffffffffffff161461116a576040517f08c379a00000000000000000000000000000000000000000000000000000000081526004016111619061352e565b60405180910390fd5b600073ffffffffffffffffffffffffffffffffffffffff168273ffffffffffffffffffffffffffffffffffffffff16036111d9576040517f08c379a00000000000000000000000000000000000000000000000000000000081526004016111d0906135c0565b60405180910390fd5b6111e68383836001611ab7565b8273ffffffffffffffffffffffffffffffffffffffff166112068261096d565b73ffffffffffffffffffffffffffffffffffffffff161461125c576040517f08c379a00000000000000000000000000000000000000000000000000000000081526004016112539061352e565b60405180910390fd5b6004600082815260200190815260200160002060006101000a81549073ffffffffffffffffffffffffffffffffffffffff02191690556001600360008573ffffffffffffffffffffffffffffffffffffffff1673ffffffffffffffffffffffffffffffffffffffff168152602001908152602001600020600082825403925050819055506001600360008473ffffffffffffffffffffffffffffffffffffffff1673ffffffffffffffffffffffffffffffffffffffff16815260200190815260200160002060008282540192505081905550816002600083815260200190815260200160002060006101000a81548173ffffffffffffffffffffffffffffffffffffffff021916908373ffffffffffffffffffffffffffffffffffffffff160217905550808273ffffffffffffffffffffffffffffffffffffffff168473ffffffffffffffffffffffffffffffffffffffff167fddf252ad1be2c89b69c2b068fc378daa952ba7f163c4a11628f55a4df523b3ef60405160405180910390a46113e88383836001611ac9565b505050565b60006113f88261096d565b9050611408816000846001611ab7565b6114118261096d565b90506004600083815260200190815260200160002060006101000a81549073ffffffffffffffffffffffffffffffffffffffff02191690556001600360008373ffffffffffffffffffffffffffffffffffffffff1673ffffffffffffffffffffffffffffffffffffffff168152602001908152602001600020600082825403925050819055506002600083815260200190815260200160002060006101000a81549073ffffffffffffffffffffffffffffffffffffffff021916905581600073ffffffffffffffffffffffffffffffffffffffff168273ffffffffffffffffffffffffffffffffffffffff167fddf252ad1be2c89b69c2b068fc378daa952ba7f163c4a11628f55a4df523b3ef60405160405180910390a4611537816000846001611ac9565b5050565b60008073ffffffffffffffffffffffffffffffffffffffff1661155d8361157c565b73ffffffffffffffffffffffffffffffffffffffff1614159050919050565b60006002600083815260200190815260200160002060009054906101000a900473ffffffffffffffffffffffffffffffffffffffff169050919050565b6115c1610f9e565b73ffffffffffffffffffffffffffffffffffffffff166115df610abe565b73ffffffffffffffffffffffffffffffffffffffff1614611635576040517f08c379a000000000000000000000000000000000000000000000000000000000815260040161162c9061362c565b60405180910390fd5b565b6000600a60009054906101000a900473ffffffffffffffffffffffffffffffffffffffff16905081600a60006101000a81548173ffffffffffffffffffffffffffffffffffffffff021916908373ffffffffffffffffffffffffffffffffffffffff1602179055508173ffffffffffffffffffffffffffffffffffffffff168173ffffffffffffffffffffffffffffffffffffffff167f8be0079c531659141344cd1fd0a4f28419497f9722a3daafe3b4186f6b6457e060405160405180910390a35050565b8173ffffffffffffffffffffffffffffffffffffffff168373ffffffffffffffffffffffffffffffffffffffff160361176b576040517f08c379a000000000000000000000000000000000000000000000000000000000815260040161176290613698565b60405180910390fd5b80600560008573ffffffffffffffffffffffffffffffffffffffff1673ffffffffffffffffffffffffffffffffffffffff16815260200190815260200160002060008473ffffffffffffffffffffffffffffffffffffffff1673ffffffffffffffffffffffffffffffffffffffff16815260200190815260200160002060006101000a81548160ff0219169083151502179055508173ffffffffffffffffffffffffffffffffffffffff168373ffffffffffffffffffffffffffffffffffffffff167f17307eab39ab6107e8899845ad3d59bd9653f200f220920489ca2b5937696c318360405161185c919061266f565b60405180910390a3505050565b6118748484846110f4565b61188084848484611acf565b6118bf576040517f08c379a00000000000000000000000000000000000000000000000000000000081526004016118b69061372a565b60405180910390fd5b50505050565b6060600060016118d484611c56565b01905060008167ffffffffffffffff8111156118f3576118f2612a50565b5b6040519080825280601f01601f1916602001820160405280156119255781602001600182028036833780820191505090505b509050600082602001820190505b600115611988578080600190039150507f3031323334353637383961626364656600000000000000000000000000000000600a86061a8153600a858161197c5761197b61374a565b5b04945060008503611933575b819350505050919050565b6001816000016000828254019250508190555050565b600081600001549050919050565b6119d1828260405180602001604052806000815250611da9565b5050565b60007f80ac58cd000000000000000000000000000000000000000000000000000000007bffffffffffffffffffffffffffffffffffffffffffffffffffffffff1916827bffffffffffffffffffffffffffffffffffffffffffffffffffffffff19161480611aa057507f5b5e139f000000000000000000000000000000000000000000000000000000007bffffffffffffffffffffffffffffffffffffffffffffffffffffffff1916827bffffffffffffffffffffffffffffffffffffffffffffffffffffffff1916145b80611ab05750611aaf82611e04565b5b9050919050565b611ac384848484611e6e565b50505050565b50505050565b6000611af08473ffffffffffffffffffffffffffffffffffffffff16611fcc565b15611c49578373ffffffffffffffffffffffffffffffffffffffff1663150b7a02611b19610f9e565b8786866040518563ffffffff1660e01b8152600401611b3b94939291906137ce565b6020604051808303816000875af1925050508015611b7757506040513d601f19601f82011682018060405250810190611b74919061382f565b60015b611bf9573d8060008114611ba7576040519150601f19603f3d011682016040523d82523d6000602084013e611bac565b606091505b506000815103611bf1576040517f08c379a0000000000000000000000000000000000000000000000000000000008152600401611be89061372a565b60405180910390fd5b805181602001fd5b63150b7a0260e01b7bffffffffffffffffffffffffffffffffffffffffffffffffffffffff1916817bffffffffffffffffffffffffffffffffffffffffffffffffffffffff191614915050611c4e565b600190505b949350505050565b600080600090507a184f03e93ff9f4daa797ed6e38ed64bf6a1f0100000000000000008310611cb4577a184f03e93ff9f4daa797ed6e38ed64bf6a1f0100000000000000008381611caa57611ca961374a565b5b0492506040810190505b6d04ee2d6d415b85acef81000000008310611cf1576d04ee2d6d415b85acef81000000008381611ce757611ce661374a565b5b0492506020810190505b662386f26fc100008310611d2057662386f26fc100008381611d1657611d1561374a565b5b0492506010810190505b6305f5e1008310611d49576305f5e1008381611d3f57611d3e61374a565b5b0492506008810190505b6127108310611d6e576127108381611d6457611d6361374a565b5b0492506004810190505b60648310611d915760648381611d8757611d8661374a565b5b0492506002810190505b600a8310611da0576001810190505b80915050919050565b611db38383611fef565b611dc06000848484611acf565b611dff576040517f08c379a0000000000000000000000000000000000000000000000000000000008152600401611df69061372a565b60405180910390fd5b505050565b60007f01ffc9a7000000000000000000000000000000000000000000000000000000007bffffffffffffffffffffffffffffffffffffffffffffffffffffffff1916827bffffffffffffffffffffffffffffffffffffffffffffffffffffffff1916149050919050565b611e7a8484848461220c565b6001811115611ebe576040517f08c379a0000000000000000000000000000000000000000000000000000000008152600401611eb5906138ce565b60405180910390fd5b6000829050600073ffffffffffffffffffffffffffffffffffffffff168573ffffffffffffffffffffffffffffffffffffffff1603611f0557611f0081612212565b611f44565b8373ffffffffffffffffffffffffffffffffffffffff168573ffffffffffffffffffffffffffffffffffffffff1614611f4357611f42858261225b565b5b5b600073ffffffffffffffffffffffffffffffffffffffff168473ffffffffffffffffffffffffffffffffffffffff1603611f8657611f81816123c8565b611fc5565b8473ffffffffffffffffffffffffffffffffffffffff168473ffffffffffffffffffffffffffffffffffffffff1614611fc457611fc38482612499565b5b5b5050505050565b6000808273ffffffffffffffffffffffffffffffffffffffff163b119050919050565b600073ffffffffffffffffffffffffffffffffffffffff168273ffffffffffffffffffffffffffffffffffffffff160361205e576040517f08c379a00000000000000000000000000000000000000000000000000000000081526004016120559061393a565b60405180910390fd5b6120678161153b565b156120a7576040517f08c379a000000000000000000000000000000000000000000000000000000000815260040161209e906139a6565b60405180910390fd5b6120b5600083836001611ab7565b6120be8161153b565b156120fe576040517f08c379a00000000000000000000000000000000000000000000000000000000081526004016120f5906139a6565b60405180910390fd5b6001600360008473ffffffffffffffffffffffffffffffffffffffff1673ffffffffffffffffffffffffffffffffffffffff16815260200190815260200160002060008282540192505081905550816002600083815260200190815260200160002060006101000a81548173ffffffffffffffffffffffffffffffffffffffff021916908373ffffffffffffffffffffffffffffffffffffffff160217905550808273ffffffffffffffffffffffffffffffffffffffff16600073ffffffffffffffffffffffffffffffffffffffff167fddf252ad1be2c89b69c2b068fc378daa952ba7f163c4a11628f55a4df523b3ef60405160405180910390a4612208600083836001611ac9565b5050565b50505050565b6008805490506009600083815260200190815260200160002081905550600881908060018154018082558091505060019003906000526020600020016000909190919091505550565b60006001612268846109f3565b61227291906139f5565b9050600060076000848152602001908152602001600020549050818114612357576000600660008673ffffffffffffffffffffffffffffffffffffffff1673ffffffffffffffffffffffffffffffffffffffff168152602001908152602001600020600084815260200190815260200160002054905080600660008773ffffffffffffffffffffffffffffffffffffffff1673ffffffffffffffffffffffffffffffffffffffff168152602001908152602001600020600084815260200190815260200160002081905550816007600083815260200190815260200160002081905550505b6007600084815260200190815260200160002060009055600660008573ffffffffffffffffffffffffffffffffffffffff1673ffffffffffffffffffffffffffffffffffffffff16815260200190815260200160002060008381526020019081526020016000206000905550505050565b600060016008805490506123dc91906139f5565b905060006009600084815260200190815260200160002054905060006008838154811061240c5761240b613044565b5b90600052602060002001549050806008838154811061242e5761242d613044565b5b90600052602060002001819055508160096000838152602001908152602001600020819055506009600085815260200190815260200160002060009055600880548061247d5761247c613a29565b5b6001900381819060005260206000200160009055905550505050565b60006124a4836109f3565b905081600660008573ffffffffffffffffffffffffffffffffffffffff1673ffffffffffffffffffffffffffffffffffffffff168152602001908152602001600020600083815260200190815260200160002081905550806007600084815260200190815260200160002081905550505050565b82805461252490612ccd565b90600052602060002090601f016020900481019282612546576000855561258d565b82601f1061255f57803560ff191683800117855561258d565b8280016001018555821561258d579182015b8281111561258c578235825591602001919060010190612571565b5b50905061259a919061259e565b5090565b5b808211156125b757600081600090555060010161259f565b5090565b6000604051905090565b600080fd5b600080fd5b60007fffffffff0000000000000000000000000000000000000000000000000000000082169050919050565b612604816125cf565b811461260f57600080fd5b50565b600081359050612621816125fb565b92915050565b60006020828403121561263d5761263c6125c5565b5b600061264b84828501612612565b91505092915050565b60008115159050919050565b61266981612654565b82525050565b60006020820190506126846000830184612660565b92915050565b600081519050919050565b600082825260208201905092915050565b60005b838110156126c45780820151818401526020810190506126a9565b838111156126d3576000848401525b50505050565b6000601f19601f8301169050919050565b60006126f58261268a565b6126ff8185612695565b935061270f8185602086016126a6565b612718816126d9565b840191505092915050565b6000602082019050818103600083015261273d81846126ea565b905092915050565b6000819050919050565b61275881612745565b811461276357600080fd5b50565b6000813590506127758161274f565b92915050565b600060208284031215612791576127906125c5565b5b600061279f84828501612766565b91505092915050565b600073ffffffffffffffffffffffffffffffffffffffff82169050919050565b60006127d3826127a8565b9050919050565b6127e3816127c8565b82525050565b60006020820190506127fe60008301846127da565b92915050565b61280d816127c8565b811461281857600080fd5b50565b60008135905061282a81612804565b92915050565b60008060408385031215612847576128466125c5565b5b60006128558582860161281b565b925050602061286685828601612766565b9150509250929050565b61287981612745565b82525050565b60006020820190506128946000830184612870565b92915050565b6000806000606084860312156128b3576128b26125c5565b5b60006128c18682870161281b565b93505060206128d28682870161281b565b92505060406128e386828701612766565b9150509250925092565b600060208284031215612903576129026125c5565b5b60006129118482850161281b565b91505092915050565b61292381612654565b811461292e57600080fd5b50565b6000813590506129408161291a565b92915050565b6000806040838503121561295d5761295c6125c5565b5b600061296b8582860161281b565b925050602061297c85828601612931565b9150509250929050565b600080fd5b600080fd5b600080fd5b60008083601f8401126129ab576129aa612986565b5b8235905067ffffffffffffffff8111156129c8576129c761298b565b5b6020830191508360018202830111156129e4576129e3612990565b5b9250929050565b600080600060408486031215612a0457612a036125c5565b5b6000612a1286828701612766565b935050602084013567ffffffffffffffff811115612a3357612a326125ca565b5b612a3f86828701612995565b92509250509250925092565b600080fd5b7f4e487b7100000000000000000000000000000000000000000000000000000000600052604160045260246000fd5b612a88826126d9565b810181811067ffffffffffffffff82111715612aa757612aa6612a50565b5b80604052505050565b6000612aba6125bb565b9050612ac68282612a7f565b919050565b600067ffffffffffffffff821115612ae657612ae5612a50565b5b612aef826126d9565b9050602081019050919050565b82818337600083830152505050565b6000612b1e612b1984612acb565b612ab0565b905082815260208101848484011115612b3a57612b39612a4b565b5b612b45848285612afc565b509392505050565b600082601f830112612b6257612b61612986565b5b8135612b72848260208601612b0b565b91505092915050565b60008060008060808587031215612b9557612b946125c5565b5b6000612ba38782880161281b565b9450506020612bb48782880161281b565b9350506040612bc587828801612766565b925050606085013567ffffffffffffffff811115612be657612be56125ca565b5b612bf287828801612b4d565b91505092959194509250565b600080600060408486031215612c1757612c166125c5565b5b6000612c258682870161281b565b935050602084013567ffffffffffffffff811115612c4657612c456125ca565b5b612c5286828701612995565b92509250509250925092565b60008060408385031215612c7557612c746125c5565b5b6000612c838582860161281b565b9250506020612c948582860161281b565b9150509250929050565b7f4e487b7100000000000000000000000000000000000000000000000000000000600052602260045260246000fd5b60006002820490506001821680612ce557607f821691505b602082108103612cf857612cf7612c9e565b5b50919050565b7f4552433732313a20617070726f76616c20746f2063757272656e74206f776e6560008201527f7200000000000000000000000000000000000000000000000000000000000000602082015250565b6000612d5a602183612695565b9150612d6582612cfe565b604082019050919050565b60006020820190508181036000830152612d8981612d4d565b9050919050565b7f4552433732313a20617070726f76652063616c6c6572206973206e6f7420746f60008201527f6b656e206f776e6572206f7220617070726f76656420666f7220616c6c000000602082015250565b6000612dec603d83612695565b9150612df782612d90565b604082019050919050565b60006020820190508181036000830152612e1b81612ddf565b9050919050565b7f4552433732313a2063616c6c6572206973206e6f7420746f6b656e206f776e6560008201527f72206f7220617070726f76656400000000000000000000000000000000000000602082015250565b6000612e7e602d83612695565b9150612e8982612e22565b604082019050919050565b60006020820190508181036000830152612ead81612e71565b9050919050565b7f455243373231456e756d657261626c653a206f776e657220696e646578206f7560008201527f74206f6620626f756e6473000000000000000000000000000000000000000000602082015250565b6000612f10602b83612695565b9150612f1b82612eb4565b604082019050919050565b60006020820190508181036000830152612f3f81612f03565b9050919050565b7f48797065724361727472696467653a20696e76616c696420746f6b656e204944600082015250565b6000612f7c602083612695565b9150612f8782612f46565b602082019050919050565b60006020820190508181036000830152612fab81612f6f565b9050919050565b7f455243373231456e756d657261626c653a20676c6f62616c20696e646578206f60008201527f7574206f6620626f756e64730000000000000000000000000000000000000000602082015250565b600061300e602c83612695565b915061301982612fb2565b604082019050919050565b6000602082019050818103600083015261303d81613001565b9050919050565b7f4e487b7100000000000000000000000000000000000000000000000000000000600052603260045260246000fd5b7f4552433732313a20696e76616c696420746f6b656e2049440000000000000000600082015250565b60006130a9601883612695565b91506130b482613073565b602082019050919050565b600060208201905081810360008301526130d88161309c565b9050919050565b7f4552433732313a2061646472657373207a65726f206973206e6f74206120766160008201527f6c6964206f776e65720000000000000000000000000000000000000000000000602082015250565b600061313b602983612695565b9150613146826130df565b604082019050919050565b6000602082019050818103600083015261316a8161312e565b9050919050565b7f48797065724361727472696467653a206e6f74206f776e657200000000000000600082015250565b60006131a7601983612695565b91506131b282613171565b602082019050919050565b600060208201905081810360008301526131d68161319a565b9050919050565b7f7b226e616d65223a224879706572436172747269646765205374617465202300815250565b600081905092915050565b60006132198261268a565b6132238185613203565b93506132338185602086016126a6565b80840191505092915050565b7f222c226465736372697074696f6e223a2248797065724361727472696467652060008201527f5374617465202300000000000000000000000000000000000000000000000000602082015250565b600061329b602783613203565b91506132a68261323f565b602782019050919050565b7f222c226261636b67726f756e645f636f6c6f72223a22303030303030222c226560008201527f787465726e616c5f75726c223a2268747470733a2f2f66756e64616f6d656e7460208201527f616c2e636f6d2f222c22696d616765223a2268747470733a2f2f63646e2e646960408201527f73636f72646170702e636f6d2f6174746163686d656e74732f3130393634323760608201527f3535393938373732303239332f3130393636353336363636353737373937393260808201527f2f746f706c6566745f556e7363616c65642e706e67222c22617474726962757460a08201527f6573223a5b5d7d0000000000000000000000000000000000000000000000000060c082015250565b60006133cb60c783613203565b91506133d6826132b1565b60c782019050919050565b60006133ec826131dd565b601f820191506133fc828561320e565b91506134078261328e565b9150613413828461320e565b915061341e826133be565b91508190509392505050565b7f4f776e61626c653a206e6577206f776e657220697320746865207a65726f206160008201527f6464726573730000000000000000000000000000000000000000000000000000602082015250565b6000613486602683612695565b91506134918261342a565b604082019050919050565b600060208201905081810360008301526134b581613479565b9050919050565b7f4552433732313a207472616e736665722066726f6d20696e636f72726563742060008201527f6f776e6572000000000000000000000000000000000000000000000000000000602082015250565b6000613518602583612695565b9150613523826134bc565b604082019050919050565b600060208201905081810360008301526135478161350b565b9050919050565b7f4552433732313a207472616e7366657220746f20746865207a65726f2061646460008201527f7265737300000000000000000000000000000000000000000000000000000000602082015250565b60006135aa602483612695565b91506135b58261354e565b604082019050919050565b600060208201905081810360008301526135d98161359d565b9050919050565b7f4f776e61626c653a2063616c6c6572206973206e6f7420746865206f776e6572600082015250565b6000613616602083612695565b9150613621826135e0565b602082019050919050565b6000602082019050818103600083015261364581613609565b9050919050565b7f4552433732313a20617070726f766520746f2063616c6c657200000000000000600082015250565b6000613682601983612695565b915061368d8261364c565b602082019050919050565b600060208201905081810360008301526136b181613675565b9050919050565b7f4552433732313a207472616e7366657220746f206e6f6e20455243373231526560008201527f63656976657220696d706c656d656e7465720000000000000000000000000000602082015250565b6000613714603283612695565b915061371f826136b8565b604082019050919050565b6000602082019050818103600083015261374381613707565b9050919050565b7f4e487b7100000000000000000000000000000000000000000000000000000000600052601260045260246000fd5b600081519050919050565b600082825260208201905092915050565b60006137a082613779565b6137aa8185613784565b93506137ba8185602086016126a6565b6137c3816126d9565b840191505092915050565b60006080820190506137e360008301876127da565b6137f060208301866127da565b6137fd6040830185612870565b818103606083015261380f8184613795565b905095945050505050565b600081519050613829816125fb565b92915050565b600060208284031215613845576138446125c5565b5b60006138538482850161381a565b91505092915050565b7f455243373231456e756d657261626c653a20636f6e736563757469766520747260008201527f616e7366657273206e6f7420737570706f727465640000000000000000000000602082015250565b60006138b8603583612695565b91506138c38261385c565b604082019050919050565b600060208201905081810360008301526138e7816138ab565b9050919050565b7f4552433732313a206d696e7420746f20746865207a65726f2061646472657373600082015250565b6000613924602083612695565b915061392f826138ee565b602082019050919050565b6000602082019050818103600083015261395381613917565b9050919050565b7f4552433732313a20746f6b656e20616c7265616479206d696e74656400000000600082015250565b6000613990601c83612695565b915061399b8261395a565b602082019050919050565b600060208201905081810360008301526139bf81613983565b9050919050565b7f4e487b7100000000000000000000000000000000000000000000000000000000600052601160045260246000fd5b6000613a0082612745565b9150613a0b83612745565b925082821015613a1e57613a1d6139c6565b5b828203905092915050565b7f4e487b7100000000000000000000000000000000000000000000000000000000600052603160045260246000fdfea26469706673582212204dd01794801ecb7f4bc98263dd80bb5b73c153f2c9b8e28540d02b0931f16bea64736f6c634300080d0033",
  "immutableReferences": {},
  "source": "// SPDX-License-Identifier: MIT\npragma solidity ^0.8.9;\nimport \"@openzeppelin/contracts/token/ERC721/ERC721.sol\";\nimport \"@openzeppelin/contracts/token/ERC721/extensions/ERC721Enumerable.sol\";\nimport \"@openzeppelin/contracts/token/ERC721/extensions/ERC721Burnable.sol\";\nimport \"@openzeppelin/contracts/access/Ownable.sol\";\nimport \"@openzeppelin/contracts/utils/Counters.sol\";\nimport \"@openzeppelin/contracts/utils/Strings.sol\";\nimport \"@openzeppelin/contracts/utils/Context.sol\";\n\ncontract HyperCartridge is ERC721, ERC721Enumerable, ERC721Burnable, Ownable {\n  using Counters for Counters.Counter;\n\n  Counters.Counter private _tokenIdCounter;\n\n  mapping(uint256 => string) private _states;\n\n  event StateChanged(uint256 indexed tokenId);\n\n  constructor() ERC721(\"HyperCartridge\", \"HCart\") {}\n  \n  function mint(address to, string calldata state) public {\n    _tokenIdCounter.increment();\n    uint256 tokenId = _tokenIdCounter.current();\n    _safeMint(to, tokenId);\n    setState(tokenId, state);\n  }\n\n  // Required overrides\n  function _beforeTokenTransfer(address from, address to, uint256 tokenId, uint256 batchSize) internal override(ERC721, ERC721Enumerable) {\n    super._beforeTokenTransfer(from, to, tokenId, batchSize);\n  }\n  function supportsInterface(bytes4 interfaceId) public view override(ERC721, ERC721Enumerable) returns (bool) {\n    return super.supportsInterface(interfaceId);\n  }\n\n  // Based on: https://docs.opensea.io/docs/metadata-standards\n  function tokenURI(uint256 tokenId) public view override (ERC721) returns (string memory) {\n\trequire(_exists(tokenId), 'HyperCartridge: invalid token ID');\n    return string.concat(\n      '{'\n        '\"name\":\"HyperCartridge State #', Strings.toString(tokenId), '\",'\n        '\"description\":\"HyperCartridge State #', Strings.toString(tokenId), '\",'\n        '\"background_color\":\"000000\",'\n        '\"external_url\":\"https://fundaomental.com/\",'\n        // '\"image\":\"https://fundaomental.com/gravitymap/2048x2048.gif\",'\n        '\"image\":\"https://cdn.discordapp.com/attachments/1096427559987720293/1096653666657779792/topleft_Unscaled.png\",'\n        // '\"state\":\"', _states[tokenId],'\",'\n        '\"attributes\":[]'\n      '}'\n\t);\n  }\n\n  function setState(uint256 tokenId, string calldata state) public {\n    require(_exists(tokenId), 'HyperCartridge: invalid token ID');\n    require(_ownerOf(tokenId) == _msgSender(), 'HyperCartridge: not owner');\n    _states[tokenId] = state;\n    emit StateChanged(tokenId);\n  }\n\n  function getState(uint256 tokenId) public view returns (string memory) {\n    require(_exists(tokenId), 'HyperCartridge: invalid token ID');\n    return _states[tokenId];\n  }\n\n}",
  "sourcePath": "/Users/robmorris/Development/funDAOmental/hypercartridge/contracts/contracts/HyperCartridge.sol",
  "compiler": {
    "name": "solc",
    "version": "0.8.13+commit.abaa5c0e.Emscripten.clang"
  },
  "schemaVersion": "3.4.13",
  "updatedAt": "2023-04-19T07:59:21.694Z",
  "devdoc": {
    "kind": "dev",
    "methods": {
      "approve(address,uint256)": {
        "details": "See {IERC721-approve}."
      },
      "balanceOf(address)": {
        "details": "See {IERC721-balanceOf}."
      },
      "burn(uint256)": {
        "details": "Burns `tokenId`. See {ERC721-_burn}. Requirements: - The caller must own `tokenId` or be an approved operator."
      },
      "getApproved(uint256)": {
        "details": "See {IERC721-getApproved}."
      },
      "isApprovedForAll(address,address)": {
        "details": "See {IERC721-isApprovedForAll}."
      },
      "name()": {
        "details": "See {IERC721Metadata-name}."
      },
      "owner()": {
        "details": "Returns the address of the current owner."
      },
      "ownerOf(uint256)": {
        "details": "See {IERC721-ownerOf}."
      },
      "renounceOwnership()": {
        "details": "Leaves the contract without owner. It will not be possible to call `onlyOwner` functions anymore. Can only be called by the current owner. NOTE: Renouncing ownership will leave the contract without an owner, thereby removing any functionality that is only available to the owner."
      },
      "safeTransferFrom(address,address,uint256)": {
        "details": "See {IERC721-safeTransferFrom}."
      },
      "safeTransferFrom(address,address,uint256,bytes)": {
        "details": "See {IERC721-safeTransferFrom}."
      },
      "setApprovalForAll(address,bool)": {
        "details": "See {IERC721-setApprovalForAll}."
      },
      "symbol()": {
        "details": "See {IERC721Metadata-symbol}."
      },
      "tokenByIndex(uint256)": {
        "details": "See {IERC721Enumerable-tokenByIndex}."
      },
      "tokenOfOwnerByIndex(address,uint256)": {
        "details": "See {IERC721Enumerable-tokenOfOwnerByIndex}."
      },
      "tokenURI(uint256)": {
        "details": "See {IERC721Metadata-tokenURI}."
      },
      "totalSupply()": {
        "details": "See {IERC721Enumerable-totalSupply}."
      },
      "transferFrom(address,address,uint256)": {
        "details": "See {IERC721-transferFrom}."
      },
      "transferOwnership(address)": {
        "details": "Transfers ownership of the contract to a new account (`newOwner`). Can only be called by the current owner."
      }
    },
    "version": 1
  },
  "userdoc": {
    "kind": "user",
    "methods": {},
    "version": 1
  }
}